{
  "contractName": "ShivaToken",
  "abi": [
    {
      "constant": true,
      "inputs": [],
      "name": "totalSupply",
      "outputs": [
        {
          "name": "",
          "type": "uint256"
        }
      ],
      "payable": false,
      "stateMutability": "view",
      "type": "function"
    },
    {
      "inputs": [],
      "payable": false,
      "stateMutability": "nonpayable",
      "type": "constructor"
    }
  ],
  "bytecode": "0x6080604052348015600f57600080fd5b50620f42406000819055506098806100286000396000f3fe6080604052600436106039576000357c01000000000000000000000000000000000000000000000000000000009004806318160ddd14603e575b600080fd5b348015604957600080fd5b5060506066565b6040518082815260200191505060405180910390f35b6000548156fea165627a7a72305820d0ea158470878f1abef170aeaead3d6260b0dcce096fca7bc3ee2efbeb9af01c0029",
  "source": "pragma solidity 0.5.1;\n\n/// @title ShivaToken\n/// @author Devesh Rawat\n/// @notice  Simple Token For store values\n/// @dev ERC20 Token standerd\n\ncontract ShivaToken {\n    \n    uint256 public totalSupply;\n\n    constructor() public{\n        totalSupply = 1000000;\n    }\n}",
  "sourcePath": "/Users/Devesh/Desktop/Learning/shivaToken/contracts/ShivaToken.sol",
  "compiler": {
    "name": "solc",
    "version": "0.5.1+commit.c8a2cb62.Linux.g++"
  },
  "schemaVersion": "3.1.0",
  "updatedAt": "2021-01-10T19:02:22.860Z",
  "networkType": "ethereum",
  "devdoc": {
    "author": "Devesh Rawat",
    "details": "ERC20 Token standerd",
    "methods": {},
    "title": "ShivaToken"
  },
  "userdoc": {
    "methods": {},
    "notice": "Simple Token For store values"
  }
}